{
  "_format": "hh-sol-artifact-1",
  "contractName": "Race",
  "sourceName": "contracts/Race.sol",
  "abi": [
    {
      "inputs": [
        {
          "internalType": "string",
          "name": "_raceId",
          "type": "string"
        },
        {
          "internalType": "address",
          "name": "addr1",
          "type": "address"
        },
        {
          "internalType": "string",
          "name": "name1",
          "type": "string"
        },
        {
          "internalType": "address",
          "name": "addr2",
          "type": "address"
        },
        {
          "internalType": "string",
          "name": "name2",
          "type": "string"
        },
        {
          "internalType": "address",
          "name": "addr3",
          "type": "address"
        },
        {
          "internalType": "string",
          "name": "name3",
          "type": "string"
        },
        {
          "internalType": "uint256",
          "name": "initCoins",
          "type": "uint256"
        }
      ],
      "stateMutability": "nonpayable",
      "type": "constructor"
    },
    {
      "anonymous": false,
      "inputs": [],
      "name": "GameBegun",
      "type": "event"
    },
    {
      "anonymous": false,
      "inputs": [],
      "name": "GameCreated",
      "type": "event"
    },
    {
      "anonymous": false,
      "inputs": [],
      "name": "GameFinished",
      "type": "event"
    },
    {
      "anonymous": false,
      "inputs": [
        {
          "indexed": true,
          "internalType": "address",
          "name": "previousOwner",
          "type": "address"
        },
        {
          "indexed": true,
          "internalType": "address",
          "name": "newOwner",
          "type": "address"
        }
      ],
      "name": "OwnershipTransferred",
      "type": "event"
    },
    {
      "inputs": [],
      "name": "endGame",
      "outputs": [],
      "stateMutability": "nonpayable",
      "type": "function"
    },
    {
      "inputs": [
        {
          "internalType": "address",
          "name": "playerAddr",
          "type": "address"
        }
      ],
      "name": "getPlayerCoins",
      "outputs": [
        {
          "internalType": "uint256",
          "name": "",
          "type": "uint256"
        }
      ],
      "stateMutability": "view",
      "type": "function"
    },
    {
      "inputs": [
        {
          "internalType": "address",
          "name": "playerAddr",
          "type": "address"
        }
      ],
      "name": "getPlayerDistance",
      "outputs": [
        {
          "internalType": "uint256",
          "name": "",
          "type": "uint256"
        }
      ],
      "stateMutability": "view",
      "type": "function"
    },
    {
      "inputs": [
        {
          "internalType": "address",
          "name": "playerAddr",
          "type": "address"
        }
      ],
      "name": "getPlayerName",
      "outputs": [
        {
          "internalType": "string",
          "name": "",
          "type": "string"
        }
      ],
      "stateMutability": "view",
      "type": "function"
    },
    {
      "inputs": [],
      "name": "getRaceId",
      "outputs": [
        {
          "internalType": "string",
          "name": "",
          "type": "string"
        }
      ],
      "stateMutability": "view",
      "type": "function"
    },
    {
      "inputs": [],
      "name": "getTotalPlayers",
      "outputs": [
        {
          "internalType": "uint32",
          "name": "",
          "type": "uint32"
        }
      ],
      "stateMutability": "view",
      "type": "function"
    },
    {
      "inputs": [],
      "name": "getWinner",
      "outputs": [
        {
          "internalType": "address",
          "name": "",
          "type": "address"
        }
      ],
      "stateMutability": "view",
      "type": "function"
    },
    {
      "inputs": [],
      "name": "isFinished",
      "outputs": [
        {
          "internalType": "bool",
          "name": "",
          "type": "bool"
        }
      ],
      "stateMutability": "view",
      "type": "function"
    },
    {
      "inputs": [],
      "name": "isOngoing",
      "outputs": [
        {
          "internalType": "bool",
          "name": "",
          "type": "bool"
        }
      ],
      "stateMutability": "view",
      "type": "function"
    },
    {
      "inputs": [
        {
          "internalType": "address",
          "name": "account",
          "type": "address"
        }
      ],
      "name": "isPlayer",
      "outputs": [
        {
          "internalType": "bool",
          "name": "",
          "type": "bool"
        }
      ],
      "stateMutability": "view",
      "type": "function"
    },
    {
      "inputs": [],
      "name": "isPregame",
      "outputs": [
        {
          "internalType": "bool",
          "name": "",
          "type": "bool"
        }
      ],
      "stateMutability": "view",
      "type": "function"
    },
    {
      "inputs": [],
      "name": "owner",
      "outputs": [
        {
          "internalType": "address",
          "name": "",
          "type": "address"
        }
      ],
      "stateMutability": "view",
      "type": "function"
    },
    {
      "inputs": [
        {
          "internalType": "address",
          "name": "",
          "type": "address"
        }
      ],
      "name": "players",
      "outputs": [
        {
          "internalType": "string",
          "name": "name",
          "type": "string"
        },
        {
          "internalType": "uint256",
          "name": "coins",
          "type": "uint256"
        },
        {
          "internalType": "uint256",
          "name": "distance",
          "type": "uint256"
        },
        {
          "internalType": "bool",
          "name": "isPlayer",
          "type": "bool"
        }
      ],
      "stateMutability": "view",
      "type": "function"
    },
    {
      "inputs": [],
      "name": "renounceOwnership",
      "outputs": [],
      "stateMutability": "nonpayable",
      "type": "function"
    },
    {
      "inputs": [],
      "name": "startGame",
      "outputs": [],
      "stateMutability": "nonpayable",
      "type": "function"
    },
    {
      "inputs": [
        {
          "internalType": "address",
          "name": "newOwner",
          "type": "address"
        }
      ],
      "name": "transferOwnership",
      "outputs": [],
      "stateMutability": "nonpayable",
      "type": "function"
    },
    {
      "inputs": [
        {
          "internalType": "address",
          "name": "addr",
          "type": "address"
        },
        {
          "internalType": "uint256",
          "name": "coins",
          "type": "uint256"
        },
        {
          "internalType": "uint256",
          "name": "distance",
          "type": "uint256"
        }
      ],
      "name": "updatePlayer",
      "outputs": [],
      "stateMutability": "nonpayable",
      "type": "function"
    }
  ],
  "bytecode": "0x60806040523480156200001157600080fd5b5060405162002368380380620023688339818101604052810190620000379190620005e8565b620000576200004b6200036b60201b60201c565b6200037360201b60201c565b87600390805190602001906200006f9291906200046e565b506200008286826200043760201b60201c565b600160008973ffffffffffffffffffffffffffffffffffffffff1673ffffffffffffffffffffffffffffffffffffffff1681526020019081526020016000206000820151816000019080519060200190620000df9291906200046e565b50602082015181600101556040820151816002015560608201518160030160006101000a81548160ff0219169083151502179055509050506200012984826200043760201b60201c565b600160008773ffffffffffffffffffffffffffffffffffffffff1673ffffffffffffffffffffffffffffffffffffffff1681526020019081526020016000206000820151816000019080519060200190620001869291906200046e565b50602082015181600101556040820151816002015560608201518160030160006101000a81548160ff021916908315150217905550905050620001d082826200043760201b60201c565b600160008573ffffffffffffffffffffffffffffffffffffffff1673ffffffffffffffffffffffffffffffffffffffff16815260200190815260200160002060008201518160000190805190602001906200022d9291906200046e565b50602082015181600101556040820151816002015560608201518160030160006101000a81548160ff02191690831515021790555090505086600460006101000a81548173ffffffffffffffffffffffffffffffffffffffff021916908373ffffffffffffffffffffffffffffffffffffffff16021790555060006002811115620002e1577f4e487b7100000000000000000000000000000000000000000000000000000000600052602160045260246000fd5b600260006101000a81548160ff021916908360028111156200032c577f4e487b7100000000000000000000000000000000000000000000000000000000600052602160045260246000fd5b02179055507f151802685129c44d0dd1313fc103826047d8aac8add2f9aec41ea52a69f2495d60405160405180910390a15050505050505050620008f1565b600033905090565b60008060009054906101000a900473ffffffffffffffffffffffffffffffffffffffff169050816000806101000a81548173ffffffffffffffffffffffffffffffffffffffff021916908373ffffffffffffffffffffffffffffffffffffffff1602179055508173ffffffffffffffffffffffffffffffffffffffff168173ffffffffffffffffffffffffffffffffffffffff167f8be0079c531659141344cd1fd0a4f28419497f9722a3daafe3b4186f6b6457e060405160405180910390a35050565b62000441620004ff565b60405180608001604052808481526020018381526020016000815260200160011515815250905092915050565b8280546200047c90620007e2565b90600052602060002090601f016020900481019282620004a05760008555620004ec565b82601f10620004bb57805160ff1916838001178555620004ec565b82800160010185558215620004ec579182015b82811115620004eb578251825591602001919060010190620004ce565b5b509050620004fb919062000529565b5090565b60405180608001604052806060815260200160008152602001600081526020016000151581525090565b5b80821115620005445760008160009055506001016200052a565b5090565b60006200055f620005598462000738565b6200070f565b9050828152602081018484840111156200057857600080fd5b62000585848285620007ac565b509392505050565b6000815190506200059e81620008bd565b92915050565b600082601f830112620005b657600080fd5b8151620005c884826020860162000548565b91505092915050565b600081519050620005e281620008d7565b92915050565b600080600080600080600080610100898b0312156200060657600080fd5b600089015167ffffffffffffffff8111156200062157600080fd5b6200062f8b828c01620005a4565b9850506020620006428b828c016200058d565b975050604089015167ffffffffffffffff8111156200066057600080fd5b6200066e8b828c01620005a4565b9650506060620006818b828c016200058d565b955050608089015167ffffffffffffffff8111156200069f57600080fd5b620006ad8b828c01620005a4565b94505060a0620006c08b828c016200058d565b93505060c089015167ffffffffffffffff811115620006de57600080fd5b620006ec8b828c01620005a4565b92505060e0620006ff8b828c01620005d1565b9150509295985092959890939650565b60006200071b6200072e565b905062000729828262000818565b919050565b6000604051905090565b600067ffffffffffffffff8211156200075657620007556200087d565b5b6200076182620008ac565b9050602081019050919050565b60006200077b8262000782565b9050919050565b600073ffffffffffffffffffffffffffffffffffffffff82169050919050565b6000819050919050565b60005b83811015620007cc578082015181840152602081019050620007af565b83811115620007dc576000848401525b50505050565b60006002820490506001821680620007fb57607f821691505b602082108114156200081257620008116200084e565b5b50919050565b6200082382620008ac565b810181811067ffffffffffffffff821117156200084557620008446200087d565b5b80604052505050565b7f4e487b7100000000000000000000000000000000000000000000000000000000600052602260045260246000fd5b7f4e487b7100000000000000000000000000000000000000000000000000000000600052604160045260246000fd5b6000601f19601f8301169050919050565b620008c8816200076e565b8114620008d457600080fd5b50565b620008e281620007a2565b8114620008ee57600080fd5b50565b611a6780620009016000396000f3fe608060405234801561001057600080fd5b506004361061010b5760003560e01c80638ab19a70116100a2578063da4f73d011610071578063da4f73d01461024c578063e18d38ce1461027c578063e2eb41ff146102ac578063ed48e8fc146102df578063f2fde38b1461030f5761010b565b80638ab19a70146101ea5780638da5cb5b146102065780638e7ea5b214610224578063d65ab5f2146102425761010b565b80636cbc2ded116100de5780636cbc2ded1461019a578063715018a6146101a45780637b352962146101ae578063878e24a4146101cc5761010b565b806309c95e10146101105780632e547407146101405780633e0881a91461015e5780634529cae71461017c575b600080fd5b61012a600480360381019061012591906115e5565b61032b565b604051610137919061175c565b60405180910390f35b610148610481565b604051610155919061175c565b60405180910390f35b610166610542565b604051610173919061175c565b60405180910390f35b610184610604565b6040516101919190611840565b60405180910390f35b6101a261060d565b005b6101ac61078f565b005b6101b66107a3565b6040516101c3919061175c565b60405180910390f35b6101d4610864565b6040516101e19190611777565b60405180910390f35b61020460048036038101906101ff919061160e565b6108f6565b005b61020e610d22565b60405161021b9190611741565b60405180910390f35b61022c610d4b565b6040516102399190611741565b60405180910390f35b61024a610e38565b005b610266600480360381019061026191906115e5565b610fbb565b6040516102739190611825565b60405180910390f35b610296600480360381019061029191906115e5565b6110d8565b6040516102a39190611777565b60405180910390f35b6102c660048036038101906102c191906115e5565b6111f6565b6040516102d69493929190611799565b60405180910390f35b6102f960048036038101906102f491906115e5565b6112bb565b6040516103069190611825565b60405180910390f35b610329600480360381019061032491906115e5565b6113d8565b005b600080600160008473ffffffffffffffffffffffffffffffffffffffff1673ffffffffffffffffffffffffffffffffffffffff16815260200190815260200160002060405180608001604052908160008201805461038890611902565b80601f01602080910402602001604051908101604052809291908181526020018280546103b490611902565b80156104015780601f106103d657610100808354040283529160200191610401565b820191906000526020600020905b8154815290600101906020018083116103e457829003601f168201915b5050505050815260200160018201548152602001600282015481526020016003820160009054906101000a900460ff1615151515815250509050806060015180156104795750600073ffffffffffffffffffffffffffffffffffffffff168373ffffffffffffffffffffffffffffffffffffffff1614155b915050919050565b60008060028111156104bc577f4e487b7100000000000000000000000000000000000000000000000000000000600052602160045260246000fd5b60028111156104f4577f4e487b7100000000000000000000000000000000000000000000000000000000600052602160045260246000fd5b600260009054906101000a900460ff16600281111561053c577f4e487b7100000000000000000000000000000000000000000000000000000000600052602160045260246000fd5b14905090565b60006001600281111561057e577f4e487b7100000000000000000000000000000000000000000000000000000000600052602160045260246000fd5b60028111156105b6577f4e487b7100000000000000000000000000000000000000000000000000000000600052602160045260246000fd5b600260009054906101000a900460ff1660028111156105fe577f4e487b7100000000000000000000000000000000000000000000000000000000600052602160045260246000fd5b14905090565b60006003905090565b61061561145c565b6001600281111561064f577f4e487b7100000000000000000000000000000000000000000000000000000000600052602160045260246000fd5b6002811115610687577f4e487b7100000000000000000000000000000000000000000000000000000000600052602160045260246000fd5b600260009054906101000a900460ff1660028111156106cf577f4e487b7100000000000000000000000000000000000000000000000000000000600052602160045260246000fd5b146106d957600080fd5b600280811115610712577f4e487b7100000000000000000000000000000000000000000000000000000000600052602160045260246000fd5b600260006101000a81548160ff0219169083600281111561075c577f4e487b7100000000000000000000000000000000000000000000000000000000600052602160045260246000fd5b02179055507fb537cbcadc098cfedf5a04ef7e68a8554b55f7e45bfdaca1cbc51a686ef65f4860405160405180910390a1565b61079761145c565b6107a160006114da565b565b60006002808111156107de577f4e487b7100000000000000000000000000000000000000000000000000000000600052602160045260246000fd5b6002811115610816577f4e487b7100000000000000000000000000000000000000000000000000000000600052602160045260246000fd5b600260009054906101000a900460ff16600281111561085e577f4e487b7100000000000000000000000000000000000000000000000000000000600052602160045260246000fd5b14905090565b60606003805461087390611902565b80601f016020809104026020016040519081016040528092919081815260200182805461089f90611902565b80156108ec5780601f106108c1576101008083540402835291602001916108ec565b820191906000526020600020905b8154815290600101906020018083116108cf57829003601f168201915b5050505050905090565b6108fe61145c565b60016002811115610938577f4e487b7100000000000000000000000000000000000000000000000000000000600052602160045260246000fd5b6002811115610970577f4e487b7100000000000000000000000000000000000000000000000000000000600052602160045260246000fd5b600260009054906101000a900460ff1660028111156109b8577f4e487b7100000000000000000000000000000000000000000000000000000000600052602160045260246000fd5b146109c257600080fd5b3073ffffffffffffffffffffffffffffffffffffffff166309c95e10846040518263ffffffff1660e01b81526004016109fb9190611741565b60206040518083038186803b158015610a1357600080fd5b505afa158015610a27573d6000803e3d6000fd5b505050506040513d601f19601f82011682018060405250810190610a4b919061165d565b610a5457600080fd5b6000600160008573ffffffffffffffffffffffffffffffffffffffff1673ffffffffffffffffffffffffffffffffffffffff168152602001908152602001600020604051806080016040529081600082018054610ab090611902565b80601f0160208091040260200160405190810160405280929190818152602001828054610adc90611902565b8015610b295780601f10610afe57610100808354040283529160200191610b29565b820191906000526020600020905b815481529060010190602001808311610b0c57829003601f168201915b5050505050815260200160018201548152602001600282015481526020016003820160009054906101000a900460ff161515151581525050905080602001518311158015610b7b575080604001518210155b610b8457600080fd5b8281602001818152505081816040018181525050600060016000600460009054906101000a900473ffffffffffffffffffffffffffffffffffffffff1673ffffffffffffffffffffffffffffffffffffffff1673ffffffffffffffffffffffffffffffffffffffff168152602001908152602001600020604051806080016040529081600082018054610c1690611902565b80601f0160208091040260200160405190810160405280929190818152602001828054610c4290611902565b8015610c8f5780601f10610c6457610100808354040283529160200191610c8f565b820191906000526020600020905b815481529060010190602001808311610c7257829003601f168201915b5050505050815260200160018201548152602001600282015481526020016003820160009054906101000a900460ff1615151515815250509050806040015182604001511115610d1b5784600460006101000a81548173ffffffffffffffffffffffffffffffffffffffff021916908373ffffffffffffffffffffffffffffffffffffffff1602179055505b5050505050565b60008060009054906101000a900473ffffffffffffffffffffffffffffffffffffffff16905090565b6000600280811115610d86577f4e487b7100000000000000000000000000000000000000000000000000000000600052602160045260246000fd5b6002811115610dbe577f4e487b7100000000000000000000000000000000000000000000000000000000600052602160045260246000fd5b600260009054906101000a900460ff166002811115610e06577f4e487b7100000000000000000000000000000000000000000000000000000000600052602160045260246000fd5b14610e1057600080fd5b600460009054906101000a900473ffffffffffffffffffffffffffffffffffffffff16905090565b610e4061145c565b60006002811115610e7a577f4e487b7100000000000000000000000000000000000000000000000000000000600052602160045260246000fd5b6002811115610eb2577f4e487b7100000000000000000000000000000000000000000000000000000000600052602160045260246000fd5b600260009054906101000a900460ff166002811115610efa577f4e487b7100000000000000000000000000000000000000000000000000000000600052602160045260246000fd5b14610f0457600080fd5b60016002811115610f3e577f4e487b7100000000000000000000000000000000000000000000000000000000600052602160045260246000fd5b600260006101000a81548160ff02191690836002811115610f88577f4e487b7100000000000000000000000000000000000000000000000000000000600052602160045260246000fd5b02179055507ff863f7481d04a6f279fa8af8d3d3d0ebbe488f4730a3218e1d9b9de19bb812aa60405160405180910390a1565b600080600160008473ffffffffffffffffffffffffffffffffffffffff1673ffffffffffffffffffffffffffffffffffffffff16815260200190815260200160002060405180608001604052908160008201805461101890611902565b80601f016020809104026020016040519081016040528092919081815260200182805461104490611902565b80156110915780601f1061106657610100808354040283529160200191611091565b820191906000526020600020905b81548152906001019060200180831161107457829003601f168201915b5050505050815260200160018201548152602001600282015481526020016003820160009054906101000a900460ff16151515158152505090508060400151915050919050565b60606000600160008473ffffffffffffffffffffffffffffffffffffffff1673ffffffffffffffffffffffffffffffffffffffff16815260200190815260200160002060405180608001604052908160008201805461113690611902565b80601f016020809104026020016040519081016040528092919081815260200182805461116290611902565b80156111af5780601f10611184576101008083540402835291602001916111af565b820191906000526020600020905b81548152906001019060200180831161119257829003601f168201915b5050505050815260200160018201548152602001600282015481526020016003820160009054906101000a900460ff16151515158152505090508060000151915050919050565b600160205280600052604060002060009150905080600001805461121990611902565b80601f016020809104026020016040519081016040528092919081815260200182805461124590611902565b80156112925780601f1061126757610100808354040283529160200191611292565b820191906000526020600020905b81548152906001019060200180831161127557829003601f168201915b5050505050908060010154908060020154908060030160009054906101000a900460ff16905084565b600080600160008473ffffffffffffffffffffffffffffffffffffffff1673ffffffffffffffffffffffffffffffffffffffff16815260200190815260200160002060405180608001604052908160008201805461131890611902565b80601f016020809104026020016040519081016040528092919081815260200182805461134490611902565b80156113915780601f1061136657610100808354040283529160200191611391565b820191906000526020600020905b81548152906001019060200180831161137457829003601f168201915b5050505050815260200160018201548152602001600282015481526020016003820160009054906101000a900460ff16151515158152505090508060200151915050919050565b6113e061145c565b600073ffffffffffffffffffffffffffffffffffffffff168173ffffffffffffffffffffffffffffffffffffffff161415611450576040517f08c379a0000000000000000000000000000000000000000000000000000000008152600401611447906117e5565b60405180910390fd5b611459816114da565b50565b61146461159e565b73ffffffffffffffffffffffffffffffffffffffff16611482610d22565b73ffffffffffffffffffffffffffffffffffffffff16146114d8576040517f08c379a00000000000000000000000000000000000000000000000000000000081526004016114cf90611805565b60405180910390fd5b565b60008060009054906101000a900473ffffffffffffffffffffffffffffffffffffffff169050816000806101000a81548173ffffffffffffffffffffffffffffffffffffffff021916908373ffffffffffffffffffffffffffffffffffffffff1602179055508173ffffffffffffffffffffffffffffffffffffffff168173ffffffffffffffffffffffffffffffffffffffff167f8be0079c531659141344cd1fd0a4f28419497f9722a3daafe3b4186f6b6457e060405160405180910390a35050565b600033905090565b6000813590506115b5816119ec565b92915050565b6000815190506115ca81611a03565b92915050565b6000813590506115df81611a1a565b92915050565b6000602082840312156115f757600080fd5b6000611605848285016115a6565b91505092915050565b60008060006060848603121561162357600080fd5b6000611631868287016115a6565b9350506020611642868287016115d0565b9250506040611653868287016115d0565b9150509250925092565b60006020828403121561166f57600080fd5b600061167d848285016115bb565b91505092915050565b61168f81611877565b82525050565b61169e81611889565b82525050565b60006116af8261185b565b6116b98185611866565b93506116c98185602086016118cf565b6116d281611963565b840191505092915050565b60006116ea602683611866565b91506116f582611974565b604082019050919050565b600061170d602083611866565b9150611718826119c3565b602082019050919050565b61172c816118b5565b82525050565b61173b816118bf565b82525050565b60006020820190506117566000830184611686565b92915050565b60006020820190506117716000830184611695565b92915050565b6000602082019050818103600083015261179181846116a4565b905092915050565b600060808201905081810360008301526117b381876116a4565b90506117c26020830186611723565b6117cf6040830185611723565b6117dc6060830184611695565b95945050505050565b600060208201905081810360008301526117fe816116dd565b9050919050565b6000602082019050818103600083015261181e81611700565b9050919050565b600060208201905061183a6000830184611723565b92915050565b60006020820190506118556000830184611732565b92915050565b600081519050919050565b600082825260208201905092915050565b600061188282611895565b9050919050565b60008115159050919050565b600073ffffffffffffffffffffffffffffffffffffffff82169050919050565b6000819050919050565b600063ffffffff82169050919050565b60005b838110156118ed5780820151818401526020810190506118d2565b838111156118fc576000848401525b50505050565b6000600282049050600182168061191a57607f821691505b6020821081141561192e5761192d611934565b5b50919050565b7f4e487b7100000000000000000000000000000000000000000000000000000000600052602260045260246000fd5b6000601f19601f8301169050919050565b7f4f776e61626c653a206e6577206f776e657220697320746865207a65726f206160008201527f6464726573730000000000000000000000000000000000000000000000000000602082015250565b7f4f776e61626c653a2063616c6c6572206973206e6f7420746865206f776e6572600082015250565b6119f581611877565b8114611a0057600080fd5b50565b611a0c81611889565b8114611a1757600080fd5b50565b611a23816118b5565b8114611a2e57600080fd5b5056fea2646970667358221220bda00a612084b8ae29e28874762ac512e503338a14c7f8c7a5be5d82c2ad984764736f6c63430008010033",
  "linkReferences": {},
  "deployedLinkReferences": {}
}