{
  "_format": "hh-sol-artifact-1",
  "contractName": "MonacoResults",
  "sourceName": "contracts/MonacoResults.sol",
  "abi": [
    {
      "anonymous": false,
      "inputs": [
        {
          "indexed": true,
          "internalType": "address",
          "name": "previousOwner",
          "type": "address"
        },
        {
          "indexed": true,
          "internalType": "address",
          "name": "newOwner",
          "type": "address"
        }
      ],
      "name": "OwnershipTransferred",
      "type": "event"
    },
    {
      "anonymous": false,
      "inputs": [
        {
          "indexed": true,
          "internalType": "address",
          "name": "raceAddress",
          "type": "address"
        },
        {
          "indexed": true,
          "internalType": "string",
          "name": "raceId",
          "type": "string"
        }
      ],
      "name": "RaceAdded",
      "type": "event"
    },
    {
      "anonymous": false,
      "inputs": [
        {
          "indexed": true,
          "internalType": "address",
          "name": "raceAddress",
          "type": "address"
        },
        {
          "indexed": true,
          "internalType": "string",
          "name": "raceId",
          "type": "string"
        }
      ],
      "name": "RaceRemoved",
      "type": "event"
    },
    {
      "anonymous": false,
      "inputs": [
        {
          "indexed": true,
          "internalType": "address",
          "name": "raceAddress",
          "type": "address"
        },
        {
          "indexed": true,
          "internalType": "string",
          "name": "raceId",
          "type": "string"
        }
      ],
      "name": "RaceUpdated",
      "type": "event"
    },
    {
      "inputs": [
        {
          "internalType": "string",
          "name": "_raceId",
          "type": "string"
        },
        {
          "internalType": "address",
          "name": "addr1",
          "type": "address"
        },
        {
          "internalType": "string",
          "name": "name1",
          "type": "string"
        },
        {
          "internalType": "address",
          "name": "addr2",
          "type": "address"
        },
        {
          "internalType": "string",
          "name": "name2",
          "type": "string"
        },
        {
          "internalType": "address",
          "name": "addr3",
          "type": "address"
        },
        {
          "internalType": "string",
          "name": "name3",
          "type": "string"
        },
        {
          "internalType": "uint256",
          "name": "initCoins",
          "type": "uint256"
        }
      ],
      "name": "addRace",
      "outputs": [],
      "stateMutability": "nonpayable",
      "type": "function"
    },
    {
      "inputs": [],
      "name": "owner",
      "outputs": [
        {
          "internalType": "address",
          "name": "",
          "type": "address"
        }
      ],
      "stateMutability": "view",
      "type": "function"
    },
    {
      "inputs": [
        {
          "internalType": "string",
          "name": "_raceId",
          "type": "string"
        }
      ],
      "name": "removeRace",
      "outputs": [],
      "stateMutability": "nonpayable",
      "type": "function"
    },
    {
      "inputs": [],
      "name": "renounceOwnership",
      "outputs": [],
      "stateMutability": "nonpayable",
      "type": "function"
    },
    {
      "inputs": [
        {
          "internalType": "address",
          "name": "newOwner",
          "type": "address"
        }
      ],
      "name": "transferOwnership",
      "outputs": [],
      "stateMutability": "nonpayable",
      "type": "function"
    },
    {
      "inputs": [
        {
          "internalType": "string",
          "name": "_raceId",
          "type": "string"
        },
        {
          "internalType": "address",
          "name": "playerAddress",
          "type": "address"
        },
        {
          "internalType": "uint256",
          "name": "coins",
          "type": "uint256"
        },
        {
          "internalType": "uint256",
          "name": "distance",
          "type": "uint256"
        }
      ],
      "name": "updateRacePlayer",
      "outputs": [],
      "stateMutability": "nonpayable",
      "type": "function"
    }
  ],
  "bytecode": "0x608060405234801561001057600080fd5b5061002d61002261003260201b60201c565b61003a60201b60201c565b6100fe565b600033905090565b60008060009054906101000a900473ffffffffffffffffffffffffffffffffffffffff169050816000806101000a81548173ffffffffffffffffffffffffffffffffffffffff021916908373ffffffffffffffffffffffffffffffffffffffff1602179055508173ffffffffffffffffffffffffffffffffffffffff168173ffffffffffffffffffffffffffffffffffffffff167f8be0079c531659141344cd1fd0a4f28419497f9722a3daafe3b4186f6b6457e060405160405180910390a35050565b6135088061010d6000396000f3fe60806040523480156200001157600080fd5b50600436106200006a5760003560e01c806343081e6c146200006f578063715018a6146200008f5780638da5cb5b146200009b578063da45320c14620000bd578063ee760afb14620000dd578063f2fde38b14620000fd575b600080fd5b6200008d6004803603810190620000879190620009b9565b6200011d565b005b6200009962000345565b005b620000a56200035d565b604051620000b4919062000cb4565b60405180910390f35b620000db6004803603810190620000d5919062000ae0565b62000386565b005b620000fb6004803603810190620000f5919062000974565b62000504565b005b6200011b600480360381019062000115919062000948565b620006be565b005b6200012762000749565b87600073ffffffffffffffffffffffffffffffffffffffff1660018260405162000152919062000c9b565b908152602001604051809103902060009054906101000a900473ffffffffffffffffffffffffffffffffffffffff1673ffffffffffffffffffffffffffffffffffffffff1614620001da576040517f08c379a0000000000000000000000000000000000000000000000000000000008152600401620001d19062000dfc565b60405180910390fd5b60008989898989898989604051620001f2906200089a565b6200020598979695949392919062000d0e565b604051809103906000f08015801562000222573d6000803e3d6000fd5b5090508060018b60405162000238919062000c9b565b908152602001604051809103902060006101000a81548173ffffffffffffffffffffffffffffffffffffffff021916908373ffffffffffffffffffffffffffffffffffffffff16021790555060026000815480929190620002999062000fae565b919050555089604051620002ae919062000c9b565b604051809103902060018b604051620002c8919062000c9b565b908152602001604051809103902060009054906101000a900473ffffffffffffffffffffffffffffffffffffffff1673ffffffffffffffffffffffffffffffffffffffff167f1c12adb1ae2fd011c38552c6fbf21a98990b53665dc83b3d8ef1a692967947b260405160405180910390a350505050505050505050565b6200034f62000749565b6200035b6000620007ce565b565b60008060009054906101000a900473ffffffffffffffffffffffffffffffffffffffff16905090565b6200039062000749565b83600073ffffffffffffffffffffffffffffffffffffffff16600182604051620003bb919062000c9b565b908152602001604051809103902060009054906101000a900473ffffffffffffffffffffffffffffffffffffffff1673ffffffffffffffffffffffffffffffffffffffff16141562000444576040517f08c379a00000000000000000000000000000000000000000000000000000000081526004016200043b9062000dda565b60405180910390fd5b600060018660405162000458919062000c9b565b908152602001604051809103902060009054906101000a900473ffffffffffffffffffffffffffffffffffffffff1690508073ffffffffffffffffffffffffffffffffffffffff16638ab19a708686866040518463ffffffff1660e01b8152600401620004c89392919062000cd1565b600060405180830381600087803b158015620004e357600080fd5b505af1158015620004f8573d6000803e3d6000fd5b50505050505050505050565b6200050e62000749565b80600073ffffffffffffffffffffffffffffffffffffffff1660018260405162000539919062000c9b565b908152602001604051809103902060009054906101000a900473ffffffffffffffffffffffffffffffffffffffff1673ffffffffffffffffffffffffffffffffffffffff161415620005c2576040517f08c379a0000000000000000000000000000000000000000000000000000000008152600401620005b99062000dda565b60405180910390fd5b600182604051620005d4919062000c9b565b908152602001604051809103902060006101000a81549073ffffffffffffffffffffffffffffffffffffffff0219169055600260008154809291906200061a9062000f49565b9190505550816040516200062f919062000c9b565b604051809103902060018360405162000649919062000c9b565b908152602001604051809103902060009054906101000a900473ffffffffffffffffffffffffffffffffffffffff1673ffffffffffffffffffffffffffffffffffffffff167f7c77667ef3aea9b24507d17ef6ceda99b145cc03853cc2579dfd9531f40cab6060405160405180910390a35050565b620006c862000749565b600073ffffffffffffffffffffffffffffffffffffffff168173ffffffffffffffffffffffffffffffffffffffff1614156200073b576040517f08c379a0000000000000000000000000000000000000000000000000000000008152600401620007329062000db8565b60405180910390fd5b6200074681620007ce565b50565b6200075362000892565b73ffffffffffffffffffffffffffffffffffffffff16620007736200035d565b73ffffffffffffffffffffffffffffffffffffffff1614620007cc576040517f08c379a0000000000000000000000000000000000000000000000000000000008152600401620007c39062000e1e565b60405180910390fd5b565b60008060009054906101000a900473ffffffffffffffffffffffffffffffffffffffff169050816000806101000a81548173ffffffffffffffffffffffffffffffffffffffff021916908373ffffffffffffffffffffffffffffffffffffffff1602179055508173ffffffffffffffffffffffffffffffffffffffff168173ffffffffffffffffffffffffffffffffffffffff167f8be0079c531659141344cd1fd0a4f28419497f9722a3daafe3b4186f6b6457e060405160405180910390a35050565b600033905090565b612369806200116a83390190565b6000620008bf620008b98462000e69565b62000e40565b905082815260208101848484011115620008d857600080fd5b620008e584828562000f04565b509392505050565b600081359050620008fe8162001135565b92915050565b600082601f8301126200091657600080fd5b813562000928848260208601620008a8565b91505092915050565b60008135905062000942816200114f565b92915050565b6000602082840312156200095b57600080fd5b60006200096b84828501620008ed565b91505092915050565b6000602082840312156200098757600080fd5b600082013567ffffffffffffffff811115620009a257600080fd5b620009b08482850162000904565b91505092915050565b600080600080600080600080610100898b031215620009d757600080fd5b600089013567ffffffffffffffff811115620009f257600080fd5b62000a008b828c0162000904565b985050602062000a138b828c01620008ed565b975050604089013567ffffffffffffffff81111562000a3157600080fd5b62000a3f8b828c0162000904565b965050606062000a528b828c01620008ed565b955050608089013567ffffffffffffffff81111562000a7057600080fd5b62000a7e8b828c0162000904565b94505060a062000a918b828c01620008ed565b93505060c089013567ffffffffffffffff81111562000aaf57600080fd5b62000abd8b828c0162000904565b92505060e062000ad08b828c0162000931565b9150509295985092959890939650565b6000806000806080858703121562000af757600080fd5b600085013567ffffffffffffffff81111562000b1257600080fd5b62000b208782880162000904565b945050602062000b3387828801620008ed565b935050604062000b468782880162000931565b925050606062000b598782880162000931565b91505092959194509250565b62000b708162000ec6565b82525050565b600062000b838262000e9f565b62000b8f818562000eaa565b935062000ba181856020860162000f13565b62000bac816200105a565b840191505092915050565b600062000bc48262000e9f565b62000bd0818562000ebb565b935062000be281856020860162000f13565b80840191505092915050565b600062000bfd60268362000eaa565b915062000c0a826200106b565b604082019050919050565b600062000c2460138362000eaa565b915062000c3182620010ba565b602082019050919050565b600062000c4b60138362000eaa565b915062000c5882620010e3565b602082019050919050565b600062000c7260208362000eaa565b915062000c7f826200110c565b602082019050919050565b62000c958162000efa565b82525050565b600062000ca9828462000bb7565b915081905092915050565b600060208201905062000ccb600083018462000b65565b92915050565b600060608201905062000ce8600083018662000b65565b62000cf7602083018562000c8a565b62000d06604083018462000c8a565b949350505050565b600061010082019050818103600083015262000d2b818b62000b76565b905062000d3c602083018a62000b65565b818103604083015262000d50818962000b76565b905062000d61606083018862000b65565b818103608083015262000d75818762000b76565b905062000d8660a083018662000b65565b81810360c083015262000d9a818562000b76565b905062000dab60e083018462000c8a565b9998505050505050505050565b6000602082019050818103600083015262000dd38162000bee565b9050919050565b6000602082019050818103600083015262000df58162000c15565b9050919050565b6000602082019050818103600083015262000e178162000c3c565b9050919050565b6000602082019050818103600083015262000e398162000c63565b9050919050565b600062000e4c62000e5f565b905062000e5a828262000f78565b919050565b6000604051905090565b600067ffffffffffffffff82111562000e875762000e866200102b565b5b62000e92826200105a565b9050602081019050919050565b600081519050919050565b600082825260208201905092915050565b600081905092915050565b600062000ed38262000eda565b9050919050565b600073ffffffffffffffffffffffffffffffffffffffff82169050919050565b6000819050919050565b82818337600083830152505050565b60005b8381101562000f3357808201518184015260208101905062000f16565b8381111562000f43576000848401525b50505050565b600062000f568262000efa565b9150600082141562000f6d5762000f6c62000ffc565b5b600182039050919050565b62000f83826200105a565b810181811067ffffffffffffffff8211171562000fa55762000fa46200102b565b5b80604052505050565b600062000fbb8262000efa565b91507fffffffffffffffffffffffffffffffffffffffffffffffffffffffffffffffff82141562000ff15762000ff062000ffc565b5b600182019050919050565b7f4e487b7100000000000000000000000000000000000000000000000000000000600052601160045260246000fd5b7f4e487b7100000000000000000000000000000000000000000000000000000000600052604160045260246000fd5b6000601f19601f8301169050919050565b7f4f776e61626c653a206e6577206f776e657220697320746865207a65726f206160008201527f6464726573730000000000000000000000000000000000000000000000000000602082015250565b7f5261636520646f6573206e6f7420657869737400000000000000000000000000600082015250565b7f5261636520616c72656164792065786973747300000000000000000000000000600082015250565b7f4f776e61626c653a2063616c6c6572206973206e6f7420746865206f776e6572600082015250565b620011408162000ec6565b81146200114c57600080fd5b50565b6200115a8162000efa565b81146200116657600080fd5b5056fe60806040523480156200001157600080fd5b5060405162002369380380620023698339818101604052810190620000379190620005e8565b620000576200004b6200036b60201b60201c565b6200037360201b60201c565b87600390805190602001906200006f9291906200046e565b506200008286826200043760201b60201c565b600160008973ffffffffffffffffffffffffffffffffffffffff1673ffffffffffffffffffffffffffffffffffffffff1681526020019081526020016000206000820151816000019080519060200190620000df9291906200046e565b50602082015181600101556040820151816002015560608201518160030160006101000a81548160ff0219169083151502179055509050506200012984826200043760201b60201c565b600160008773ffffffffffffffffffffffffffffffffffffffff1673ffffffffffffffffffffffffffffffffffffffff1681526020019081526020016000206000820151816000019080519060200190620001869291906200046e565b50602082015181600101556040820151816002015560608201518160030160006101000a81548160ff021916908315150217905550905050620001d082826200043760201b60201c565b600160008573ffffffffffffffffffffffffffffffffffffffff1673ffffffffffffffffffffffffffffffffffffffff16815260200190815260200160002060008201518160000190805190602001906200022d9291906200046e565b50602082015181600101556040820151816002015560608201518160030160006101000a81548160ff02191690831515021790555090505086600460006101000a81548173ffffffffffffffffffffffffffffffffffffffff021916908373ffffffffffffffffffffffffffffffffffffffff16021790555060006002811115620002e1577f4e487b7100000000000000000000000000000000000000000000000000000000600052602160045260246000fd5b600260006101000a81548160ff021916908360028111156200032c577f4e487b7100000000000000000000000000000000000000000000000000000000600052602160045260246000fd5b02179055507f151802685129c44d0dd1313fc103826047d8aac8add2f9aec41ea52a69f2495d60405160405180910390a15050505050505050620008f1565b600033905090565b60008060009054906101000a900473ffffffffffffffffffffffffffffffffffffffff169050816000806101000a81548173ffffffffffffffffffffffffffffffffffffffff021916908373ffffffffffffffffffffffffffffffffffffffff1602179055508173ffffffffffffffffffffffffffffffffffffffff168173ffffffffffffffffffffffffffffffffffffffff167f8be0079c531659141344cd1fd0a4f28419497f9722a3daafe3b4186f6b6457e060405160405180910390a35050565b62000441620004ff565b60405180608001604052808481526020018381526020016000815260200160011515815250905092915050565b8280546200047c90620007e2565b90600052602060002090601f016020900481019282620004a05760008555620004ec565b82601f10620004bb57805160ff1916838001178555620004ec565b82800160010185558215620004ec579182015b82811115620004eb578251825591602001919060010190620004ce565b5b509050620004fb919062000529565b5090565b60405180608001604052806060815260200160008152602001600081526020016000151581525090565b5b80821115620005445760008160009055506001016200052a565b5090565b60006200055f620005598462000738565b6200070f565b9050828152602081018484840111156200057857600080fd5b62000585848285620007ac565b509392505050565b6000815190506200059e81620008bd565b92915050565b600082601f830112620005b657600080fd5b8151620005c884826020860162000548565b91505092915050565b600081519050620005e281620008d7565b92915050565b600080600080600080600080610100898b0312156200060657600080fd5b600089015167ffffffffffffffff8111156200062157600080fd5b6200062f8b828c01620005a4565b9850506020620006428b828c016200058d565b975050604089015167ffffffffffffffff8111156200066057600080fd5b6200066e8b828c01620005a4565b9650506060620006818b828c016200058d565b955050608089015167ffffffffffffffff8111156200069f57600080fd5b620006ad8b828c01620005a4565b94505060a0620006c08b828c016200058d565b93505060c089015167ffffffffffffffff811115620006de57600080fd5b620006ec8b828c01620005a4565b92505060e0620006ff8b828c01620005d1565b9150509295985092959890939650565b60006200071b6200072e565b905062000729828262000818565b919050565b6000604051905090565b600067ffffffffffffffff8211156200075657620007556200087d565b5b6200076182620008ac565b9050602081019050919050565b60006200077b8262000782565b9050919050565b600073ffffffffffffffffffffffffffffffffffffffff82169050919050565b6000819050919050565b60005b83811015620007cc578082015181840152602081019050620007af565b83811115620007dc576000848401525b50505050565b60006002820490506001821680620007fb57607f821691505b602082108114156200081257620008116200084e565b5b50919050565b6200082382620008ac565b810181811067ffffffffffffffff821117156200084557620008446200087d565b5b80604052505050565b7f4e487b7100000000000000000000000000000000000000000000000000000000600052602260045260246000fd5b7f4e487b7100000000000000000000000000000000000000000000000000000000600052604160045260246000fd5b6000601f19601f8301169050919050565b620008c8816200076e565b8114620008d457600080fd5b50565b620008e281620007a2565b8114620008ee57600080fd5b50565b611a6880620009016000396000f3fe608060405234801561001057600080fd5b506004361061010b5760003560e01c80638ab19a70116100a2578063da4f73d011610071578063da4f73d01461024c578063e18d38ce1461027c578063e2eb41ff146102ac578063ed48e8fc146102df578063f2fde38b1461030f5761010b565b80638ab19a70146101ea5780638da5cb5b146102065780638e7ea5b214610224578063d65ab5f2146102425761010b565b80636cbc2ded116100de5780636cbc2ded1461019a578063715018a6146101a45780637b352962146101ae578063878e24a4146101cc5761010b565b806309c95e10146101105780632e547407146101405780633e0881a91461015e5780634529cae71461017c575b600080fd5b61012a600480360381019061012591906115e6565b61032b565b604051610137919061175d565b60405180910390f35b610148610481565b604051610155919061175d565b60405180910390f35b610166610543565b604051610173919061175d565b60405180910390f35b610184610605565b6040516101919190611841565b60405180910390f35b6101a261060e565b005b6101ac610790565b005b6101b66107a4565b6040516101c3919061175d565b60405180910390f35b6101d4610865565b6040516101e19190611778565b60405180910390f35b61020460048036038101906101ff919061160f565b6108f7565b005b61020e610d23565b60405161021b9190611742565b60405180910390f35b61022c610d4c565b6040516102399190611742565b60405180910390f35b61024a610e39565b005b610266600480360381019061026191906115e6565b610fbc565b6040516102739190611826565b60405180910390f35b610296600480360381019061029191906115e6565b6110d9565b6040516102a39190611778565b60405180910390f35b6102c660048036038101906102c191906115e6565b6111f7565b6040516102d6949392919061179a565b60405180910390f35b6102f960048036038101906102f491906115e6565b6112bc565b6040516103069190611826565b60405180910390f35b610329600480360381019061032491906115e6565b6113d9565b005b600080600160008473ffffffffffffffffffffffffffffffffffffffff1673ffffffffffffffffffffffffffffffffffffffff16815260200190815260200160002060405180608001604052908160008201805461038890611903565b80601f01602080910402602001604051908101604052809291908181526020018280546103b490611903565b80156104015780601f106103d657610100808354040283529160200191610401565b820191906000526020600020905b8154815290600101906020018083116103e457829003601f168201915b5050505050815260200160018201548152602001600282015481526020016003820160009054906101000a900460ff1615151515815250509050806060015180156104795750600073ffffffffffffffffffffffffffffffffffffffff168373ffffffffffffffffffffffffffffffffffffffff1614155b915050919050565b60008060028111156104bc577f4e487b7100000000000000000000000000000000000000000000000000000000600052602160045260246000fd5b60028111156104f4577f4e487b7100000000000000000000000000000000000000000000000000000000600052602160045260246000fd5b600260009054906101000a900460ff16600281111561053c577f4e487b7100000000000000000000000000000000000000000000000000000000600052602160045260246000fd5b1415905090565b60006001600281111561057f577f4e487b7100000000000000000000000000000000000000000000000000000000600052602160045260246000fd5b60028111156105b7577f4e487b7100000000000000000000000000000000000000000000000000000000600052602160045260246000fd5b600260009054906101000a900460ff1660028111156105ff577f4e487b7100000000000000000000000000000000000000000000000000000000600052602160045260246000fd5b14905090565b60006003905090565b61061661145d565b60016002811115610650577f4e487b7100000000000000000000000000000000000000000000000000000000600052602160045260246000fd5b6002811115610688577f4e487b7100000000000000000000000000000000000000000000000000000000600052602160045260246000fd5b600260009054906101000a900460ff1660028111156106d0577f4e487b7100000000000000000000000000000000000000000000000000000000600052602160045260246000fd5b146106da57600080fd5b600280811115610713577f4e487b7100000000000000000000000000000000000000000000000000000000600052602160045260246000fd5b600260006101000a81548160ff0219169083600281111561075d577f4e487b7100000000000000000000000000000000000000000000000000000000600052602160045260246000fd5b02179055507fb537cbcadc098cfedf5a04ef7e68a8554b55f7e45bfdaca1cbc51a686ef65f4860405160405180910390a1565b61079861145d565b6107a260006114db565b565b60006002808111156107df577f4e487b7100000000000000000000000000000000000000000000000000000000600052602160045260246000fd5b6002811115610817577f4e487b7100000000000000000000000000000000000000000000000000000000600052602160045260246000fd5b600260009054906101000a900460ff16600281111561085f577f4e487b7100000000000000000000000000000000000000000000000000000000600052602160045260246000fd5b14905090565b60606003805461087490611903565b80601f01602080910402602001604051908101604052809291908181526020018280546108a090611903565b80156108ed5780601f106108c2576101008083540402835291602001916108ed565b820191906000526020600020905b8154815290600101906020018083116108d057829003601f168201915b5050505050905090565b6108ff61145d565b60016002811115610939577f4e487b7100000000000000000000000000000000000000000000000000000000600052602160045260246000fd5b6002811115610971577f4e487b7100000000000000000000000000000000000000000000000000000000600052602160045260246000fd5b600260009054906101000a900460ff1660028111156109b9577f4e487b7100000000000000000000000000000000000000000000000000000000600052602160045260246000fd5b146109c357600080fd5b3073ffffffffffffffffffffffffffffffffffffffff166309c95e10846040518263ffffffff1660e01b81526004016109fc9190611742565b60206040518083038186803b158015610a1457600080fd5b505afa158015610a28573d6000803e3d6000fd5b505050506040513d601f19601f82011682018060405250810190610a4c919061165e565b610a5557600080fd5b6000600160008573ffffffffffffffffffffffffffffffffffffffff1673ffffffffffffffffffffffffffffffffffffffff168152602001908152602001600020604051806080016040529081600082018054610ab190611903565b80601f0160208091040260200160405190810160405280929190818152602001828054610add90611903565b8015610b2a5780601f10610aff57610100808354040283529160200191610b2a565b820191906000526020600020905b815481529060010190602001808311610b0d57829003601f168201915b5050505050815260200160018201548152602001600282015481526020016003820160009054906101000a900460ff161515151581525050905080602001518311158015610b7c575080604001518210155b610b8557600080fd5b8281602001818152505081816040018181525050600060016000600460009054906101000a900473ffffffffffffffffffffffffffffffffffffffff1673ffffffffffffffffffffffffffffffffffffffff1673ffffffffffffffffffffffffffffffffffffffff168152602001908152602001600020604051806080016040529081600082018054610c1790611903565b80601f0160208091040260200160405190810160405280929190818152602001828054610c4390611903565b8015610c905780601f10610c6557610100808354040283529160200191610c90565b820191906000526020600020905b815481529060010190602001808311610c7357829003601f168201915b5050505050815260200160018201548152602001600282015481526020016003820160009054906101000a900460ff1615151515815250509050806040015182604001511115610d1c5784600460006101000a81548173ffffffffffffffffffffffffffffffffffffffff021916908373ffffffffffffffffffffffffffffffffffffffff1602179055505b5050505050565b60008060009054906101000a900473ffffffffffffffffffffffffffffffffffffffff16905090565b6000600280811115610d87577f4e487b7100000000000000000000000000000000000000000000000000000000600052602160045260246000fd5b6002811115610dbf577f4e487b7100000000000000000000000000000000000000000000000000000000600052602160045260246000fd5b600260009054906101000a900460ff166002811115610e07577f4e487b7100000000000000000000000000000000000000000000000000000000600052602160045260246000fd5b14610e1157600080fd5b600460009054906101000a900473ffffffffffffffffffffffffffffffffffffffff16905090565b610e4161145d565b60006002811115610e7b577f4e487b7100000000000000000000000000000000000000000000000000000000600052602160045260246000fd5b6002811115610eb3577f4e487b7100000000000000000000000000000000000000000000000000000000600052602160045260246000fd5b600260009054906101000a900460ff166002811115610efb577f4e487b7100000000000000000000000000000000000000000000000000000000600052602160045260246000fd5b14610f0557600080fd5b60016002811115610f3f577f4e487b7100000000000000000000000000000000000000000000000000000000600052602160045260246000fd5b600260006101000a81548160ff02191690836002811115610f89577f4e487b7100000000000000000000000000000000000000000000000000000000600052602160045260246000fd5b02179055507ff863f7481d04a6f279fa8af8d3d3d0ebbe488f4730a3218e1d9b9de19bb812aa60405160405180910390a1565b600080600160008473ffffffffffffffffffffffffffffffffffffffff1673ffffffffffffffffffffffffffffffffffffffff16815260200190815260200160002060405180608001604052908160008201805461101990611903565b80601f016020809104026020016040519081016040528092919081815260200182805461104590611903565b80156110925780601f1061106757610100808354040283529160200191611092565b820191906000526020600020905b81548152906001019060200180831161107557829003601f168201915b5050505050815260200160018201548152602001600282015481526020016003820160009054906101000a900460ff16151515158152505090508060400151915050919050565b60606000600160008473ffffffffffffffffffffffffffffffffffffffff1673ffffffffffffffffffffffffffffffffffffffff16815260200190815260200160002060405180608001604052908160008201805461113790611903565b80601f016020809104026020016040519081016040528092919081815260200182805461116390611903565b80156111b05780601f10611185576101008083540402835291602001916111b0565b820191906000526020600020905b81548152906001019060200180831161119357829003601f168201915b5050505050815260200160018201548152602001600282015481526020016003820160009054906101000a900460ff16151515158152505090508060000151915050919050565b600160205280600052604060002060009150905080600001805461121a90611903565b80601f016020809104026020016040519081016040528092919081815260200182805461124690611903565b80156112935780601f1061126857610100808354040283529160200191611293565b820191906000526020600020905b81548152906001019060200180831161127657829003601f168201915b5050505050908060010154908060020154908060030160009054906101000a900460ff16905084565b600080600160008473ffffffffffffffffffffffffffffffffffffffff1673ffffffffffffffffffffffffffffffffffffffff16815260200190815260200160002060405180608001604052908160008201805461131990611903565b80601f016020809104026020016040519081016040528092919081815260200182805461134590611903565b80156113925780601f1061136757610100808354040283529160200191611392565b820191906000526020600020905b81548152906001019060200180831161137557829003601f168201915b5050505050815260200160018201548152602001600282015481526020016003820160009054906101000a900460ff16151515158152505090508060200151915050919050565b6113e161145d565b600073ffffffffffffffffffffffffffffffffffffffff168173ffffffffffffffffffffffffffffffffffffffff161415611451576040517f08c379a0000000000000000000000000000000000000000000000000000000008152600401611448906117e6565b60405180910390fd5b61145a816114db565b50565b61146561159f565b73ffffffffffffffffffffffffffffffffffffffff16611483610d23565b73ffffffffffffffffffffffffffffffffffffffff16146114d9576040517f08c379a00000000000000000000000000000000000000000000000000000000081526004016114d090611806565b60405180910390fd5b565b60008060009054906101000a900473ffffffffffffffffffffffffffffffffffffffff169050816000806101000a81548173ffffffffffffffffffffffffffffffffffffffff021916908373ffffffffffffffffffffffffffffffffffffffff1602179055508173ffffffffffffffffffffffffffffffffffffffff168173ffffffffffffffffffffffffffffffffffffffff167f8be0079c531659141344cd1fd0a4f28419497f9722a3daafe3b4186f6b6457e060405160405180910390a35050565b600033905090565b6000813590506115b6816119ed565b92915050565b6000815190506115cb81611a04565b92915050565b6000813590506115e081611a1b565b92915050565b6000602082840312156115f857600080fd5b6000611606848285016115a7565b91505092915050565b60008060006060848603121561162457600080fd5b6000611632868287016115a7565b9350506020611643868287016115d1565b9250506040611654868287016115d1565b9150509250925092565b60006020828403121561167057600080fd5b600061167e848285016115bc565b91505092915050565b61169081611878565b82525050565b61169f8161188a565b82525050565b60006116b08261185c565b6116ba8185611867565b93506116ca8185602086016118d0565b6116d381611964565b840191505092915050565b60006116eb602683611867565b91506116f682611975565b604082019050919050565b600061170e602083611867565b9150611719826119c4565b602082019050919050565b61172d816118b6565b82525050565b61173c816118c0565b82525050565b60006020820190506117576000830184611687565b92915050565b60006020820190506117726000830184611696565b92915050565b6000602082019050818103600083015261179281846116a5565b905092915050565b600060808201905081810360008301526117b481876116a5565b90506117c36020830186611724565b6117d06040830185611724565b6117dd6060830184611696565b95945050505050565b600060208201905081810360008301526117ff816116de565b9050919050565b6000602082019050818103600083015261181f81611701565b9050919050565b600060208201905061183b6000830184611724565b92915050565b60006020820190506118566000830184611733565b92915050565b600081519050919050565b600082825260208201905092915050565b600061188382611896565b9050919050565b60008115159050919050565b600073ffffffffffffffffffffffffffffffffffffffff82169050919050565b6000819050919050565b600063ffffffff82169050919050565b60005b838110156118ee5780820151818401526020810190506118d3565b838111156118fd576000848401525b50505050565b6000600282049050600182168061191b57607f821691505b6020821081141561192f5761192e611935565b5b50919050565b7f4e487b7100000000000000000000000000000000000000000000000000000000600052602260045260246000fd5b6000601f19601f8301169050919050565b7f4f776e61626c653a206e6577206f776e657220697320746865207a65726f206160008201527f6464726573730000000000000000000000000000000000000000000000000000602082015250565b7f4f776e61626c653a2063616c6c6572206973206e6f7420746865206f776e6572600082015250565b6119f681611878565b8114611a0157600080fd5b50565b611a0d8161188a565b8114611a1857600080fd5b50565b611a24816118b6565b8114611a2f57600080fd5b5056fea2646970667358221220735e97f536b4c504e2c8e78fc7d32639924a5e643c96396cd95fa297013a301064736f6c63430008010033a264697066735822122050c3e2feca7e6ef1959391ed2b6fbec95ee78676a32ffb80ae02866acba1797464736f6c63430008010033",
  "linkReferences": {},
  "deployedLinkReferences": {}
}